{"abi":[{"type":"constructor","inputs":[],"stateMutability":"nonpayable"},{"type":"function","name":"MAX_RESOLUTION_PERIOD","inputs":[],"outputs":[{"name":"","type":"uint256","internalType":"uint256"}],"stateMutability":"view"},{"type":"function","name":"MIN_RESOLUTION_PERIOD","inputs":[],"outputs":[{"name":"","type":"uint256","internalType":"uint256"}],"stateMutability":"view"},{"type":"function","name":"MIN_STAKE","inputs":[],"outputs":[{"name":"","type":"uint256","internalType":"uint256"}],"stateMutability":"view"},{"type":"function","name":"PROTOCOL_FEE_BPS","inputs":[],"outputs":[{"name":"","type":"uint256","internalType":"uint256"}],"stateMutability":"view"},{"type":"function","name":"RESOLUTION_WINDOW","inputs":[],"outputs":[{"name":"","type":"uint256","internalType":"uint256"}],"stateMutability":"view"},{"type":"function","name":"claim","inputs":[{"name":"marketId","type":"uint256","internalType":"uint256"}],"outputs":[],"stateMutability":"nonpayable"},{"type":"function","name":"createMarket","inputs":[{"name":"proposition","type":"string","internalType":"string"},{"name":"context","type":"string","internalType":"string"},{"name":"resolutionTime","type":"uint256","internalType":"uint256"},{"name":"resolver","type":"address","internalType":"address"}],"outputs":[{"name":"marketId","type":"uint256","internalType":"uint256"}],"stateMutability":"payable"},{"type":"function","name":"getMarket","inputs":[{"name":"marketId","type":"uint256","internalType":"uint256"}],"outputs":[{"name":"","type":"tuple","internalType":"struct WisdomMarket.Market","components":[{"name":"proposition","type":"string","internalType":"string"},{"name":"context","type":"string","internalType":"string"},{"name":"creator","type":"address","internalType":"address"},{"name":"createdAt","type":"uint256","internalType":"uint256"},{"name":"resolutionTime","type":"uint256","internalType":"uint256"},{"name":"totalForStake","type":"uint256","internalType":"uint256"},{"name":"totalAgainstStake","type":"uint256","internalType":"uint256"},{"name":"stakersCount","type":"uint256","internalType":"uint256"},{"name":"state","type":"uint8","internalType":"enum WisdomMarket.MarketState"},{"name":"outcome","type":"uint8","internalType":"enum WisdomMarket.Outcome"},{"name":"resolver","type":"address","internalType":"address"}]}],"stateMutability":"view"},{"type":"function","name":"getOdds","inputs":[{"name":"marketId","type":"uint256","internalType":"uint256"}],"outputs":[{"name":"forPct","type":"uint256","internalType":"uint256"},{"name":"againstPct","type":"uint256","internalType":"uint256"}],"stateMutability":"view"},{"type":"function","name":"getPendingPayout","inputs":[{"name":"marketId","type":"uint256","internalType":"uint256"},{"name":"staker","type":"address","internalType":"address"}],"outputs":[{"name":"","type":"uint256","internalType":"uint256"}],"stateMutability":"view"},{"type":"function","name":"getStake","inputs":[{"name":"marketId","type":"uint256","internalType":"uint256"},{"name":"staker","type":"address","internalType":"address"}],"outputs":[{"name":"","type":"tuple","internalType":"struct WisdomMarket.Stake","components":[{"name":"forAmount","type":"uint256","internalType":"uint256"},{"name":"againstAmount","type":"uint256","internalType":"uint256"},{"name":"claimed","type":"bool","internalType":"bool"}]}],"stateMutability":"view"},{"type":"function","name":"markExpired","inputs":[{"name":"marketId","type":"uint256","internalType":"uint256"}],"outputs":[],"stateMutability":"nonpayable"},{"type":"function","name":"markets","inputs":[{"name":"","type":"uint256","internalType":"uint256"}],"outputs":[{"name":"proposition","type":"string","internalType":"string"},{"name":"context","type":"string","internalType":"string"},{"name":"creator","type":"address","internalType":"address"},{"name":"createdAt","type":"uint256","internalType":"uint256"},{"name":"resolutionTime","type":"uint256","internalType":"uint256"},{"name":"totalForStake","type":"uint256","internalType":"uint256"},{"name":"totalAgainstStake","type":"uint256","internalType":"uint256"},{"name":"stakersCount","type":"uint256","internalType":"uint256"},{"name":"state","type":"uint8","internalType":"enum WisdomMarket.MarketState"},{"name":"outcome","type":"uint8","internalType":"enum WisdomMarket.Outcome"},{"name":"resolver","type":"address","internalType":"address"}],"stateMutability":"view"},{"type":"function","name":"nextMarketId","inputs":[],"outputs":[{"name":"","type":"uint256","internalType":"uint256"}],"stateMutability":"view"},{"type":"function","name":"owner","inputs":[],"outputs":[{"name":"","type":"address","internalType":"address"}],"stateMutability":"view"},{"type":"function","name":"protocolFees","inputs":[],"outputs":[{"name":"","type":"uint256","internalType":"uint256"}],"stateMutability":"view"},{"type":"function","name":"resolve","inputs":[{"name":"marketId","type":"uint256","internalType":"uint256"},{"name":"outcome","type":"uint8","internalType":"enum WisdomMarket.Outcome"}],"outputs":[],"stateMutability":"nonpayable"},{"type":"function","name":"shareInsight","inputs":[{"name":"marketId","type":"uint256","internalType":"uint256"},{"name":"insight","type":"string","internalType":"string"}],"outputs":[],"stateMutability":"nonpayable"},{"type":"function","name":"stakeAgainst","inputs":[{"name":"marketId","type":"uint256","internalType":"uint256"}],"outputs":[],"stateMutability":"payable"},{"type":"function","name":"stakeFor","inputs":[{"name":"marketId","type":"uint256","internalType":"uint256"}],"outputs":[],"stateMutability":"payable"},{"type":"function","name":"stakes","inputs":[{"name":"","type":"uint256","internalType":"uint256"},{"name":"","type":"address","internalType":"address"}],"outputs":[{"name":"forAmount","type":"uint256","internalType":"uint256"},{"name":"againstAmount","type":"uint256","internalType":"uint256"},{"name":"claimed","type":"bool","internalType":"bool"}],"stateMutability":"view"},{"type":"function","name":"transferOwnership","inputs":[{"name":"newOwner","type":"address","internalType":"address"}],"outputs":[],"stateMutability":"nonpayable"},{"type":"function","name":"withdrawFees","inputs":[],"outputs":[],"stateMutability":"nonpayable"},{"type":"event","name":"Claimed","inputs":[{"name":"marketId","type":"uint256","indexed":true,"internalType":"uint256"},{"name":"staker","type":"address","indexed":true,"internalType":"address"},{"name":"amount","type":"uint256","indexed":false,"internalType":"uint256"}],"anonymous":false},{"type":"event","name":"MarketCreated","inputs":[{"name":"marketId","type":"uint256","indexed":true,"internalType":"uint256"},{"name":"proposition","type":"string","indexed":false,"internalType":"string"},{"name":"creator","type":"address","indexed":true,"internalType":"address"},{"name":"resolutionTime","type":"uint256","indexed":false,"internalType":"uint256"}],"anonymous":false},{"type":"event","name":"MarketResolved","inputs":[{"name":"marketId","type":"uint256","indexed":true,"internalType":"uint256"},{"name":"outcome","type":"uint8","indexed":false,"internalType":"enum WisdomMarket.Outcome"},{"name":"resolver","type":"address","indexed":true,"internalType":"address"}],"anonymous":false},{"type":"event","name":"Staked","inputs":[{"name":"marketId","type":"uint256","indexed":true,"internalType":"uint256"},{"name":"staker","type":"address","indexed":true,"internalType":"address"},{"name":"isFor","type":"bool","indexed":false,"internalType":"bool"},{"name":"amount","type":"uint256","indexed":false,"internalType":"uint256"}],"anonymous":false},{"type":"event","name":"WisdomShared","inputs":[{"name":"marketId","type":"uint256","indexed":true,"internalType":"uint256"},{"name":"sharer","type":"address","indexed":true,"internalType":"address"},{"name":"insight","type":"string","indexed":false,"internalType":"string"}],"anonymous":false}],"bytecode":{"object":"0x6080604052348015600e575f5ffd5b503360015f6101000a81548173ffffffffffffffffffffffffffffffffffffffff021916908373ffffffffffffffffffffffffffffffffffffffff16021790555061399a8061005c5f395ff3fe60806040526004361061013f575f3560e01c806377fd00c5116100b5578063b1283e771161006e578063b1283e7714610434578063be3782281461047a578063cb1c2b5c146104a4578063e27604bd146104ce578063eb44fdd3146104ea578063f2fde38b146105265761013f565b806377fd00c5146103185780637ee577a2146103405780638da5cb5b1461037c5780639c0e1608146103a6578063a9a3bba4146103ce578063ab1cf7ee1461040c5761013f565b8063476343ee11610107578063476343ee14610226578063494dc73c1461023c57806351f6c03d1461026c57806368c5805e14610296578063734c8544146102d25780637776eab6146102fc5761013f565b8063126c4166146101435780631ad8b03b14610180578063379607f5146101aa578063406ef2ef146101d2578063462c905f146101fc575b5f5ffd5b34801561014e575f5ffd5b5061016960048036038101906101649190612320565b61054e565b60405161017792919061235a565b60405180910390f35b34801561018b575f5ffd5b5061019461060a565b6040516101a19190612381565b60405180910390f35b3480156101b5575f5ffd5b506101d060048036038101906101cb9190612320565b610610565b005b3480156101dd575f5ffd5b506101e661097a565b6040516101f39190612381565b60405180910390f35b348015610207575f5ffd5b5061021061097f565b60405161021d9190612381565b60405180910390f35b348015610231575f5ffd5b5061023a610986565b005b61025660048036038101906102519190612455565b610aef565b6040516102639190612381565b60405180910390f35b348015610277575f5ffd5b50610280610e0d565b60405161028d9190612381565b60405180910390f35b3480156102a1575f5ffd5b506102bc60048036038101906102b791906124f8565b610e15565b6040516102c9919061259f565b60405180910390f35b3480156102dd575f5ffd5b506102e6610ea9565b6040516102f39190612381565b60405180910390f35b61031660048036038101906103119190612320565b610eb0565b005b348015610323575f5ffd5b5061033e60048036038101906103399190612320565b610f03565b005b34801561034b575f5ffd5b50610366600480360381019061036191906124f8565b611083565b6040516103739190612381565b60405180910390f35b348015610387575f5ffd5b506103906111a3565b60405161039d91906125c7565b60405180910390f35b3480156103b1575f5ffd5b506103cc60048036038101906103c79190612603565b6111c8565b005b3480156103d9575f5ffd5b506103f460048036038101906103ef91906124f8565b611583565b60405161040393929190612650565b60405180910390f35b348015610417575f5ffd5b50610432600480360381019061042d9190612685565b6115c0565b005b34801561043f575f5ffd5b5061045a60048036038101906104559190612320565b611754565b6040516104719b9a9998979695949392919061280b565b60405180910390f35b348015610485575f5ffd5b5061048e61190e565b60405161049b9190612381565b60405180910390f35b3480156104af575f5ffd5b506104b8611913565b6040516104c59190612381565b60405180910390f35b6104e860048036038101906104e39190612320565b61191d565b005b3480156104f5575f5ffd5b50610510600480360381019061050b9190612320565b611971565b60405161051d9190612a2a565b60405180910390f35b348015610531575f5ffd5b5061054c60048036038101906105479190612a4a565b611c53565b005b5f5f825f548110610594576040517f08c379a000000000000000000000000000000000000000000000000000000000815260040161058b90612abf565b60405180910390fd5b5f60035f8681526020019081526020015f2090505f816006015482600501546105bd9190612b0a565b90505f81036105d457603280945094505050610604565b80606483600501546105e69190612b3d565b6105f09190612bab565b94508460646105ff9190612bdb565b935050505b50915091565b60025481565b805f548110610654576040517f08c379a000000000000000000000000000000000000000000000000000000000815260040161064b90612abf565b60405180910390fd5b5f60035f8481526020019081526020015f2090506002600381111561067c5761067b612752565b5b816008015f9054906101000a900460ff16600381111561069f5761069e612752565b5b14806106de57506003808111156106b9576106b8612752565b5b816008015f9054906101000a900460ff1660038111156106dc576106db612752565b5b145b61071d576040517f08c379a000000000000000000000000000000000000000000000000000000000815260040161071490612c58565b60405180910390fd5b5f60045f8581526020019081526020015f205f3373ffffffffffffffffffffffffffffffffffffffff1673ffffffffffffffffffffffffffffffffffffffff1681526020019081526020015f209050806002015f9054906101000a900460ff16156107bd576040517f08c379a00000000000000000000000000000000000000000000000000000000081526004016107b490612cc0565b60405180910390fd5b5f815f015411806107d157505f8160010154115b610810576040517f08c379a000000000000000000000000000000000000000000000000000000000815260040161080790612d28565b60405180910390fd5b6001816002015f6101000a81548160ff0219169083151502179055505f6108378533611d93565b90505f811161087b576040517f08c379a000000000000000000000000000000000000000000000000000000000815260040161087290612d90565b60405180910390fd5b5f3373ffffffffffffffffffffffffffffffffffffffff16826040516108a090612ddb565b5f6040518083038185875af1925050503d805f81146108da576040519150601f19603f3d011682016040523d82523d5f602084013e6108df565b606091505b5050905080610923576040517f08c379a000000000000000000000000000000000000000000000000000000000815260040161091a90612e39565b60405180910390fd5b3373ffffffffffffffffffffffffffffffffffffffff16867f4ec90e965519d92681267467f775ada5bd214aa92c0dc93d90a5e880ce9ed0268460405161096a9190612381565b60405180910390a3505050505050565b5f5481565b6201518081565b60015f9054906101000a900473ffffffffffffffffffffffffffffffffffffffff1673ffffffffffffffffffffffffffffffffffffffff163373ffffffffffffffffffffffffffffffffffffffff1614610a15576040517f08c379a0000000000000000000000000000000000000000000000000000000008152600401610a0c90612ea1565b60405180910390fd5b5f60025490505f6002819055505f60015f9054906101000a900473ffffffffffffffffffffffffffffffffffffffff1673ffffffffffffffffffffffffffffffffffffffff1682604051610a6890612ddb565b5f6040518083038185875af1925050503d805f8114610aa2576040519150601f19603f3d011682016040523d82523d5f602084013e610aa7565b606091505b5050905080610aeb576040517f08c379a0000000000000000000000000000000000000000000000000000000008152600401610ae290612e39565b60405180910390fd5b5050565b5f5f8787905011610b35576040517f08c379a0000000000000000000000000000000000000000000000000000000008152600401610b2c90612f09565b60405180910390fd5b610118878790501115610b7d576040517f08c379a0000000000000000000000000000000000000000000000000000000008152600401610b7490612f71565b60405180910390fd5b6201518042610b8c9190612b0a565b831015610bce576040517f08c379a0000000000000000000000000000000000000000000000000000000008152600401610bc590612fd9565b60405180910390fd5b6301e1338042610bde9190612b0a565b831115610c20576040517f08c379a0000000000000000000000000000000000000000000000000000000008152600401610c1790613041565b60405180910390fd5b5f5f815480929190610c319061305f565b9190505590505f60035f8381526020019081526020015f2090508787825f019182610c5d9291906132eb565b508585826001019182610c719291906132eb565b5033816002015f6101000a81548173ffffffffffffffffffffffffffffffffffffffff021916908373ffffffffffffffffffffffffffffffffffffffff1602179055504281600301819055508381600401819055505f816008015f6101000a81548160ff02191690836003811115610cec57610ceb612752565b5b02179055505f8160080160016101000a81548160ff02191690836003811115610d1857610d17612752565b5b02179055505f73ffffffffffffffffffffffffffffffffffffffff168373ffffffffffffffffffffffffffffffffffffffff1614610d565782610d58565b335b8160080160026101000a81548173ffffffffffffffffffffffffffffffffffffffff021916908373ffffffffffffffffffffffffffffffffffffffff1602179055503373ffffffffffffffffffffffffffffffffffffffff16827f069da8c9710c1600001ae111f110050f586b7fcd73d420b5eb03747f67e86d0d8a8a88604051610de5939291906133f2565b60405180910390a35f341115610e0257610e0182600134611fbd565b5b509695505050505050565b6301e1338081565b610e1d612224565b60045f8481526020019081526020015f205f8373ffffffffffffffffffffffffffffffffffffffff1673ffffffffffffffffffffffffffffffffffffffff1681526020019081526020015f206040518060600160405290815f820154815260200160018201548152602001600282015f9054906101000a900460ff161515151581525050905092915050565b62093a8081565b805f548110610ef4576040517f08c379a0000000000000000000000000000000000000000000000000000000008152600401610eeb90612abf565b60405180910390fd5b610eff825f34611fbd565b5050565b805f548110610f47576040517f08c379a0000000000000000000000000000000000000000000000000000000008152600401610f3e90612abf565b60405180910390fd5b5f60035f8481526020019081526020015f2090505f6003811115610f6e57610f6d612752565b5b816008015f9054906101000a900460ff166003811115610f9157610f90612752565b5b14610fd1576040517f08c379a0000000000000000000000000000000000000000000000000000000008152600401610fc89061346c565b60405180910390fd5b62093a808160040154610fe49190612b0a565b4211611025576040517f08c379a000000000000000000000000000000000000000000000000000000000815260040161101c906134d4565b60405180910390fd5b6003816008015f6101000a81548160ff0219169083600381111561104c5761104b612752565b5b021790555060038160080160016101000a81548160ff0219169083600381111561107957611078612752565b5b0217905550505050565b5f5f60035f8581526020019081526020015f209050600260038111156110ac576110ab612752565b5b816008015f9054906101000a900460ff1660038111156110cf576110ce612752565b5b1415801561111157506003808111156110eb576110ea612752565b5b816008015f9054906101000a900460ff16600381111561110e5761110d612752565b5b14155b1561111f575f91505061119d565b5f60045f8681526020019081526020015f205f8573ffffffffffffffffffffffffffffffffffffffff1673ffffffffffffffffffffffffffffffffffffffff1681526020019081526020015f209050806002015f9054906101000a900460ff161561118e575f9250505061119d565b6111988585611d93565b925050505b92915050565b60015f9054906101000a900473ffffffffffffffffffffffffffffffffffffffff1681565b815f54811061120c576040517f08c379a000000000000000000000000000000000000000000000000000000000815260040161120390612abf565b60405180910390fd5b5f60035f8581526020019081526020015f2090505f600381111561123357611232612752565b5b816008015f9054906101000a900460ff16600381111561125657611255612752565b5b14611296576040517f08c379a000000000000000000000000000000000000000000000000000000000815260040161128d9061346c565b60405180910390fd5b80600401544210156112dd576040517f08c379a00000000000000000000000000000000000000000000000000000000081526004016112d49061353c565b60405180910390fd5b62093a8081600401546112f09190612b0a565b421115611332576040517f08c379a0000000000000000000000000000000000000000000000000000000008152600401611329906135a4565b60405180910390fd5b8060080160029054906101000a900473ffffffffffffffffffffffffffffffffffffffff1673ffffffffffffffffffffffffffffffffffffffff163373ffffffffffffffffffffffffffffffffffffffff16146113c4576040517f08c379a00000000000000000000000000000000000000000000000000000000081526004016113bb9061360c565b60405180910390fd5b600160038111156113d8576113d7612752565b5b8360038111156113eb576113ea612752565b5b148061141b57506002600381111561140657611405612752565b5b83600381111561141957611418612752565b5b145b80611449575060038081111561143457611433612752565b5b83600381111561144757611446612752565b5b145b611488576040517f08c379a000000000000000000000000000000000000000000000000000000000815260040161147f90613674565b60405180910390fd5b6002816008015f6101000a81548160ff021916908360038111156114af576114ae612752565b5b0217905550828160080160016101000a81548160ff021916908360038111156114db576114da612752565b5b02179055505f816006015482600501546114f59190612b0a565b90505f6127106064836115089190612b3d565b6115129190612bab565b90508060025f8282546115259190612b0a565b925050819055503373ffffffffffffffffffffffffffffffffffffffff16867f13bfa3c09213a32e3e4e61fbacd90900cec1e99511766660189122444fdeec7d876040516115739190613692565b60405180910390a3505050505050565b6004602052815f5260405f20602052805f5260405f205f9150915050805f015490806001015490806002015f9054906101000a900460ff16905083565b825f548110611604576040517f08c379a00000000000000000000000000000000000000000000000000000000081526004016115fb90612abf565b60405180910390fd5b5f8383905011801561161b57506102308383905011155b61165a576040517f08c379a0000000000000000000000000000000000000000000000000000000008152600401611651906136f5565b60405180910390fd5b5f60045f8681526020019081526020015f205f3373ffffffffffffffffffffffffffffffffffffffff1673ffffffffffffffffffffffffffffffffffffffff1681526020019081526020015f2090505f815f015411806116bd57505f8160010154115b6116fc576040517f08c379a00000000000000000000000000000000000000000000000000000000081526004016116f39061375d565b60405180910390fd5b3373ffffffffffffffffffffffffffffffffffffffff16857f48d6f71bd48429b563a7539a530ac09b99d9817022284ac0f79be660a7aece8c868660405161174592919061377b565b60405180910390a35050505050565b6003602052805f5260405f205f91509050805f0180546117739061310a565b80601f016020809104026020016040519081016040528092919081815260200182805461179f9061310a565b80156117ea5780601f106117c1576101008083540402835291602001916117ea565b820191905f5260205f20905b8154815290600101906020018083116117cd57829003601f168201915b5050505050908060010180546117ff9061310a565b80601f016020809104026020016040519081016040528092919081815260200182805461182b9061310a565b80156118765780601f1061184d57610100808354040283529160200191611876565b820191905f5260205f20905b81548152906001019060200180831161185957829003601f168201915b505050505090806002015f9054906101000a900473ffffffffffffffffffffffffffffffffffffffff1690806003015490806004015490806005015490806006015490806007015490806008015f9054906101000a900460ff16908060080160019054906101000a900460ff16908060080160029054906101000a900473ffffffffffffffffffffffffffffffffffffffff1690508b565b606481565b655af3107a400081565b805f548110611961576040517f08c379a000000000000000000000000000000000000000000000000000000000815260040161195890612abf565b60405180910390fd5b61196d82600134611fbd565b5050565b611979612244565b815f5481106119bd576040517f08c379a00000000000000000000000000000000000000000000000000000000081526004016119b490612abf565b60405180910390fd5b60035f8481526020019081526020015f20604051806101600160405290815f820180546119e99061310a565b80601f0160208091040260200160405190810160405280929190818152602001828054611a159061310a565b8015611a605780601f10611a3757610100808354040283529160200191611a60565b820191905f5260205f20905b815481529060010190602001808311611a4357829003601f168201915b50505050508152602001600182018054611a799061310a565b80601f0160208091040260200160405190810160405280929190818152602001828054611aa59061310a565b8015611af05780601f10611ac757610100808354040283529160200191611af0565b820191905f5260205f20905b815481529060010190602001808311611ad357829003601f168201915b50505050508152602001600282015f9054906101000a900473ffffffffffffffffffffffffffffffffffffffff1673ffffffffffffffffffffffffffffffffffffffff1673ffffffffffffffffffffffffffffffffffffffff1681526020016003820154815260200160048201548152602001600582015481526020016006820154815260200160078201548152602001600882015f9054906101000a900460ff166003811115611ba457611ba3612752565b5b6003811115611bb657611bb5612752565b5b81526020016008820160019054906101000a900460ff166003811115611bdf57611bde612752565b5b6003811115611bf157611bf0612752565b5b81526020016008820160029054906101000a900473ffffffffffffffffffffffffffffffffffffffff1673ffffffffffffffffffffffffffffffffffffffff1673ffffffffffffffffffffffffffffffffffffffff1681525050915050919050565b60015f9054906101000a900473ffffffffffffffffffffffffffffffffffffffff1673ffffffffffffffffffffffffffffffffffffffff163373ffffffffffffffffffffffffffffffffffffffff1614611ce2576040517f08c379a0000000000000000000000000000000000000000000000000000000008152600401611cd990612ea1565b60405180910390fd5b5f73ffffffffffffffffffffffffffffffffffffffff168173ffffffffffffffffffffffffffffffffffffffff1603611d50576040517f08c379a0000000000000000000000000000000000000000000000000000000008152600401611d47906137e7565b60405180910390fd5b8060015f6101000a81548173ffffffffffffffffffffffffffffffffffffffff021916908373ffffffffffffffffffffffffffffffffffffffff16021790555050565b5f5f60035f8581526020019081526020015f2090505f60045f8681526020019081526020015f205f8573ffffffffffffffffffffffffffffffffffffffff1673ffffffffffffffffffffffffffffffffffffffff1681526020019081526020015f2090505f82600601548360050154611e0c9190612b0a565b90505f612710606483611e1f9190612b3d565b611e299190612bab565b90505f8183611e389190612bdb565b9050600380811115611e4d57611e4c612752565b5b8560080160019054906101000a900460ff166003811115611e7157611e70612752565b5b03611eb0575f8460010154855f0154611e8a9190612b0a565b9050838282611e999190612b3d565b611ea39190612bab565b9650505050505050611fb7565b60016003811115611ec457611ec3612752565b5b8560080160019054906101000a900460ff166003811115611ee857611ee7612752565b5b03611f2e575f845f015403611f04575f95505050505050611fb7565b846005015481855f0154611f189190612b3d565b611f229190612bab565b95505050505050611fb7565b60026003811115611f4257611f41612752565b5b8560080160019054906101000a900460ff166003811115611f6657611f65612752565b5b03611fae575f846001015403611f83575f95505050505050611fb7565b8460060154818560010154611f989190612b3d565b611fa29190612bab565b95505050505050611fb7565b5f955050505050505b92915050565b5f60035f8581526020019081526020015f2090505f6003811115611fe457611fe3612752565b5b816008015f9054906101000a900460ff16600381111561200757612006612752565b5b14612047576040517f08c379a000000000000000000000000000000000000000000000000000000000815260040161203e9061384f565b60405180910390fd5b8060040154421061208d576040517f08c379a0000000000000000000000000000000000000000000000000000000008152600401612084906138b7565b60405180910390fd5b655af3107a40008210156120d6576040517f08c379a00000000000000000000000000000000000000000000000000000000081526004016120cd9061391f565b60405180910390fd5b5f60045f8681526020019081526020015f205f3373ffffffffffffffffffffffffffffffffffffffff1673ffffffffffffffffffffffffffffffffffffffff1681526020019081526020015f2090505f815f015414801561213a57505f8160010154145b1561215957816007015f8154809291906121539061305f565b91905055505b83156121975782815f015f8282546121719190612b0a565b9250508190555082826005015f82825461218b9190612b0a565b925050819055506121cc565b82816001015f8282546121aa9190612b0a565b9250508190555082826006015f8282546121c49190612b0a565b925050819055505b3373ffffffffffffffffffffffffffffffffffffffff16857f740b87c8254001c5bb22c005dae213cda66458ff749a4a8b73842d576bd51ce3868660405161221592919061393d565b60405180910390a35050505050565b60405180606001604052805f81526020015f81526020015f151581525090565b60405180610160016040528060608152602001606081526020015f73ffffffffffffffffffffffffffffffffffffffff1681526020015f81526020015f81526020015f81526020015f81526020015f81526020015f60038111156122ab576122aa612752565b5b81526020015f60038111156122c3576122c2612752565b5b81526020015f73ffffffffffffffffffffffffffffffffffffffff1681525090565b5f5ffd5b5f5ffd5b5f819050919050565b6122ff816122ed565b8114612309575f5ffd5b50565b5f8135905061231a816122f6565b92915050565b5f60208284031215612335576123346122e5565b5b5f6123428482850161230c565b91505092915050565b612354816122ed565b82525050565b5f60408201905061236d5f83018561234b565b61237a602083018461234b565b9392505050565b5f6020820190506123945f83018461234b565b92915050565b5f5ffd5b5f5ffd5b5f5ffd5b5f5f83601f8401126123bb576123ba61239a565b5b8235905067ffffffffffffffff8111156123d8576123d761239e565b5b6020830191508360018202830111156123f4576123f36123a2565b5b9250929050565b5f73ffffffffffffffffffffffffffffffffffffffff82169050919050565b5f612424826123fb565b9050919050565b6124348161241a565b811461243e575f5ffd5b50565b5f8135905061244f8161242b565b92915050565b5f5f5f5f5f5f6080878903121561246f5761246e6122e5565b5b5f87013567ffffffffffffffff81111561248c5761248b6122e9565b5b61249889828a016123a6565b9650965050602087013567ffffffffffffffff8111156124bb576124ba6122e9565b5b6124c789828a016123a6565b945094505060406124da89828a0161230c565b92505060606124eb89828a01612441565b9150509295509295509295565b5f5f6040838503121561250e5761250d6122e5565b5b5f61251b8582860161230c565b925050602061252c85828601612441565b9150509250929050565b61253f816122ed565b82525050565b5f8115159050919050565b61255981612545565b82525050565b606082015f8201516125735f850182612536565b5060208201516125866020850182612536565b5060408201516125996040850182612550565b50505050565b5f6060820190506125b25f83018461255f565b92915050565b6125c18161241a565b82525050565b5f6020820190506125da5f8301846125b8565b92915050565b600481106125ec575f5ffd5b50565b5f813590506125fd816125e0565b92915050565b5f5f60408385031215612619576126186122e5565b5b5f6126268582860161230c565b9250506020612637858286016125ef565b9150509250929050565b61264a81612545565b82525050565b5f6060820190506126635f83018661234b565b612670602083018561234b565b61267d6040830184612641565b949350505050565b5f5f5f6040848603121561269c5761269b6122e5565b5b5f6126a98682870161230c565b935050602084013567ffffffffffffffff8111156126ca576126c96122e9565b5b6126d6868287016123a6565b92509250509250925092565b5f81519050919050565b5f82825260208201905092915050565b8281835e5f83830152505050565b5f601f19601f8301169050919050565b5f612724826126e2565b61272e81856126ec565b935061273e8185602086016126fc565b6127478161270a565b840191505092915050565b7f4e487b71000000000000000000000000000000000000000000000000000000005f52602160045260245ffd5b600481106127905761278f612752565b5b50565b5f8190506127a08261277f565b919050565b5f6127af82612793565b9050919050565b6127bf816127a5565b82525050565b600481106127d6576127d5612752565b5b50565b5f8190506127e6826127c5565b919050565b5f6127f5826127d9565b9050919050565b612805816127eb565b82525050565b5f610160820190508181035f830152612824818e61271a565b90508181036020830152612838818d61271a565b9050612847604083018c6125b8565b612854606083018b61234b565b612861608083018a61234b565b61286e60a083018961234b565b61287b60c083018861234b565b61288860e083018761234b565b6128966101008301866127b6565b6128a46101208301856127fc565b6128b26101408301846125b8565b9c9b505050505050505050505050565b5f82825260208201905092915050565b5f6128dc826126e2565b6128e681856128c2565b93506128f68185602086016126fc565b6128ff8161270a565b840191505092915050565b6129138161241a565b82525050565b612922816127a5565b82525050565b612931816127eb565b82525050565b5f61016083015f8301518482035f86015261295282826128d2565b9150506020830151848203602086015261296c82826128d2565b9150506040830151612981604086018261290a565b5060608301516129946060860182612536565b5060808301516129a76080860182612536565b5060a08301516129ba60a0860182612536565b5060c08301516129cd60c0860182612536565b5060e08301516129e060e0860182612536565b506101008301516129f5610100860182612919565b50610120830151612a0a610120860182612928565b50610140830151612a1f61014086018261290a565b508091505092915050565b5f6020820190508181035f830152612a428184612937565b905092915050565b5f60208284031215612a5f57612a5e6122e5565b5b5f612a6c84828501612441565b91505092915050565b7f4d61726b657420646f6573206e6f7420657869737400000000000000000000005f82015250565b5f612aa96015836126ec565b9150612ab482612a75565b602082019050919050565b5f6020820190508181035f830152612ad681612a9d565b9050919050565b7f4e487b71000000000000000000000000000000000000000000000000000000005f52601160045260245ffd5b5f612b14826122ed565b9150612b1f836122ed565b9250828201905080821115612b3757612b36612add565b5b92915050565b5f612b47826122ed565b9150612b52836122ed565b9250828202612b60816122ed565b91508282048414831517612b7757612b76612add565b5b5092915050565b7f4e487b71000000000000000000000000000000000000000000000000000000005f52601260045260245ffd5b5f612bb5826122ed565b9150612bc0836122ed565b925082612bd057612bcf612b7e565b5b828204905092915050565b5f612be5826122ed565b9150612bf0836122ed565b9250828203905081811115612c0857612c07612add565b5b92915050565b7f4e6f74207265736f6c76656400000000000000000000000000000000000000005f82015250565b5f612c42600c836126ec565b9150612c4d82612c0e565b602082019050919050565b5f6020820190508181035f830152612c6f81612c36565b9050919050565b7f416c726561647920636c61696d656400000000000000000000000000000000005f82015250565b5f612caa600f836126ec565b9150612cb582612c76565b602082019050919050565b5f6020820190508181035f830152612cd781612c9e565b9050919050565b7f4e6f207374616b650000000000000000000000000000000000000000000000005f82015250565b5f612d126008836126ec565b9150612d1d82612cde565b602082019050919050565b5f6020820190508181035f830152612d3f81612d06565b9050919050565b7f4e6f207061796f757400000000000000000000000000000000000000000000005f82015250565b5f612d7a6009836126ec565b9150612d8582612d46565b602082019050919050565b5f6020820190508181035f830152612da781612d6e565b9050919050565b5f81905092915050565b50565b5f612dc65f83612dae565b9150612dd182612db8565b5f82019050919050565b5f612de582612dbb565b9150819050919050565b7f5472616e73666572206661696c656400000000000000000000000000000000005f82015250565b5f612e23600f836126ec565b9150612e2e82612def565b602082019050919050565b5f6020820190508181035f830152612e5081612e17565b9050919050565b7f4e6f74206f776e657200000000000000000000000000000000000000000000005f82015250565b5f612e8b6009836126ec565b9150612e9682612e57565b602082019050919050565b5f6020820190508181035f830152612eb881612e7f565b9050919050565b7f456d7074792070726f706f736974696f6e0000000000000000000000000000005f82015250565b5f612ef36011836126ec565b9150612efe82612ebf565b602082019050919050565b5f6020820190508181035f830152612f2081612ee7565b9050919050565b7f50726f706f736974696f6e20746f6f206c6f6e670000000000000000000000005f82015250565b5f612f5b6014836126ec565b9150612f6682612f27565b602082019050919050565b5f6020820190508181035f830152612f8881612f4f565b9050919050565b7f5265736f6c7574696f6e20746f6f20736f6f6e000000000000000000000000005f82015250565b5f612fc36013836126ec565b9150612fce82612f8f565b602082019050919050565b5f6020820190508181035f830152612ff081612fb7565b9050919050565b7f5265736f6c7574696f6e20746f6f2066617200000000000000000000000000005f82015250565b5f61302b6012836126ec565b915061303682612ff7565b602082019050919050565b5f6020820190508181035f8301526130588161301f565b9050919050565b5f613069826122ed565b91507fffffffffffffffffffffffffffffffffffffffffffffffffffffffffffffffff820361309b5761309a612add565b5b600182019050919050565b5f82905092915050565b7f4e487b71000000000000000000000000000000000000000000000000000000005f52604160045260245ffd5b7f4e487b71000000000000000000000000000000000000000000000000000000005f52602260045260245ffd5b5f600282049050600182168061312157607f821691505b602082108103613134576131336130dd565b5b50919050565b5f819050815f5260205f209050919050565b5f6020601f8301049050919050565b5f82821b905092915050565b5f600883026131967fffffffffffffffffffffffffffffffffffffffffffffffffffffffffffffffff8261315b565b6131a0868361315b565b95508019841693508086168417925050509392505050565b5f819050919050565b5f6131db6131d66131d1846122ed565b6131b8565b6122ed565b9050919050565b5f819050919050565b6131f4836131c1565b613208613200826131e2565b848454613167565b825550505050565b5f5f905090565b61321f613210565b61322a8184846131eb565b505050565b5f5b82811015613250576132455f828401613217565b600181019050613231565b505050565b601f8211156132a357828211156132a25761326f8161313a565b6132788361314c565b6132818561314c565b602086101561328e575f90505b80830161329d8284038261322f565b505050505b5b505050565b5f82821c905092915050565b5f6132c35f19846008026132a8565b1980831691505092915050565b5f6132db83836132b4565b9150826002028217905092915050565b6132f583836130a6565b67ffffffffffffffff81111561330e5761330d6130b0565b5b613318825461310a565b613323828285613255565b5f601f831160018114613350575f841561333e578287013590505b61334885826132d0565b8655506133af565b601f19841661335e8661313a565b5f5b8281101561338557848901358255600182019150602085019450602081019050613360565b868310156133a2578489013561339e601f8916826132b4565b8355505b6001600288020188555050505b50505050505050565b828183375f83830152505050565b5f6133d183856126ec565b93506133de8385846133b8565b6133e78361270a565b840190509392505050565b5f6040820190508181035f83015261340b8185876133c6565b905061341a602083018461234b565b949350505050565b7f4e6f7420616374697665000000000000000000000000000000000000000000005f82015250565b5f613456600a836126ec565b915061346182613422565b602082019050919050565b5f6020820190508181035f8301526134838161344a565b9050919050565b7f5374696c6c20696e207265736f6c7574696f6e2077696e646f770000000000005f82015250565b5f6134be601a836126ec565b91506134c98261348a565b602082019050919050565b5f6020820190508181035f8301526134eb816134b2565b9050919050565b7f546f6f206561726c7900000000000000000000000000000000000000000000005f82015250565b5f6135266009836126ec565b9150613531826134f2565b602082019050919050565b5f6020820190508181035f8301526135538161351a565b9050919050565b7f5265736f6c7574696f6e2077696e646f772070617373656400000000000000005f82015250565b5f61358e6018836126ec565b91506135998261355a565b602082019050919050565b5f6020820190508181035f8301526135bb81613582565b9050919050565b7f4e6f74207265736f6c76657200000000000000000000000000000000000000005f82015250565b5f6135f6600c836126ec565b9150613601826135c2565b602082019050919050565b5f6020820190508181035f830152613623816135ea565b9050919050565b7f496e76616c6964206f7574636f6d6500000000000000000000000000000000005f82015250565b5f61365e600f836126ec565b91506136698261362a565b602082019050919050565b5f6020820190508181035f83015261368b81613652565b9050919050565b5f6020820190506136a55f8301846127fc565b92915050565b7f496e76616c6964206c656e6774680000000000000000000000000000000000005f82015250565b5f6136df600e836126ec565b91506136ea826136ab565b602082019050919050565b5f6020820190508181035f83015261370c816136d3565b9050919050565b7f5374616b652066697273740000000000000000000000000000000000000000005f82015250565b5f613747600b836126ec565b915061375282613713565b602082019050919050565b5f6020820190508181035f8301526137748161373b565b9050919050565b5f6020820190508181035f8301526137948184866133c6565b90509392505050565b7f5a65726f206164647265737300000000000000000000000000000000000000005f82015250565b5f6137d1600c836126ec565b91506137dc8261379d565b602082019050919050565b5f6020820190508181035f8301526137fe816137c5565b9050919050565b7f4d61726b6574206e6f74206163746976650000000000000000000000000000005f82015250565b5f6138396011836126ec565b915061384482613805565b602082019050919050565b5f6020820190508181035f8301526138668161382d565b9050919050565b7f5374616b696e6720636c6f7365640000000000000000000000000000000000005f82015250565b5f6138a1600e836126ec565b91506138ac8261386d565b602082019050919050565b5f6020820190508181035f8301526138ce81613895565b9050919050565b7f42656c6f77206d696e696d756d207374616b65000000000000000000000000005f82015250565b5f6139096013836126ec565b9150613914826138d5565b602082019050919050565b5f6020820190508181035f830152613936816138fd565b9050919050565b5f6040820190506139505f830185612641565b61395d602083018461234b565b939250505056fea26469706673582212207b7717c56b46792bb4c7465ce41e57cc79a580507d996a30461104646b4c953264736f6c63430008210033","linkReferences":{}},"methodIdentifiers":{"MAX_RESOLUTION_PERIOD()":"51f6c03d","MIN_RESOLUTION_PERIOD()":"462c905f","MIN_STAKE()":"cb1c2b5c","PROTOCOL_FEE_BPS()":"be378228","RESOLUTION_WINDOW()":"734c8544","claim(uint256)":"379607f5","createMarket(string,string,uint256,address)":"494dc73c","getMarket(uint256)":"eb44fdd3","getOdds(uint256)":"126c4166","getPendingPayout(uint256,address)":"7ee577a2","getStake(uint256,address)":"68c5805e","markExpired(uint256)":"77fd00c5","markets(uint256)":"b1283e77","nextMarketId()":"406ef2ef","owner()":"8da5cb5b","protocolFees()":"1ad8b03b","resolve(uint256,uint8)":"9c0e1608","shareInsight(uint256,string)":"ab1cf7ee","stakeAgainst(uint256)":"7776eab6","stakeFor(uint256)":"e27604bd","stakes(uint256,address)":"a9a3bba4","transferOwnership(address)":"f2fde38b","withdrawFees()":"476343ee"},"id":30}