{"abi":[{"type":"constructor","inputs":[{"name":"_stakingToken","type":"address","internalType":"address"}],"stateMutability":"nonpayable"},{"type":"function","name":"accumulatedFees","inputs":[],"outputs":[{"name":"","type":"uint256","internalType":"uint256"}],"stateMutability":"view"},{"type":"function","name":"agentLosses","inputs":[{"name":"","type":"address","internalType":"address"}],"outputs":[{"name":"","type":"uint256","internalType":"uint256"}],"stateMutability":"view"},{"type":"function","name":"agentTotalStaked","inputs":[{"name":"","type":"address","internalType":"address"}],"outputs":[{"name":"","type":"uint256","internalType":"uint256"}],"stateMutability":"view"},{"type":"function","name":"agentWins","inputs":[{"name":"","type":"address","internalType":"address"}],"outputs":[{"name":"","type":"uint256","internalType":"uint256"}],"stateMutability":"view"},{"type":"function","name":"claim","inputs":[{"name":"marketId","type":"uint256","internalType":"uint256"}],"outputs":[],"stateMutability":"nonpayable"},{"type":"function","name":"createMarket","inputs":[{"name":"question","type":"string","internalType":"string"},{"name":"resolutionTime","type":"uint256","internalType":"uint256"},{"name":"initialPosition","type":"uint8","internalType":"enum WisdomMarket.Position"},{"name":"initialStake","type":"uint256","internalType":"uint256"}],"outputs":[{"name":"marketId","type":"uint256","internalType":"uint256"}],"stateMutability":"nonpayable"},{"type":"function","name":"getAgentStats","inputs":[{"name":"agent","type":"address","internalType":"address"}],"outputs":[{"name":"wins","type":"uint256","internalType":"uint256"},{"name":"losses","type":"uint256","internalType":"uint256"},{"name":"totalStaked","type":"uint256","internalType":"uint256"},{"name":"accuracy","type":"uint256","internalType":"uint256"}],"stateMutability":"view"},{"type":"function","name":"getMarket","inputs":[{"name":"id","type":"uint256","internalType":"uint256"}],"outputs":[{"name":"","type":"tuple","internalType":"struct WisdomMarket.Market","components":[{"name":"question","type":"string","internalType":"string"},{"name":"creator","type":"address","internalType":"address"},{"name":"resolutionTime","type":"uint256","internalType":"uint256"},{"name":"yesPool","type":"uint256","internalType":"uint256"},{"name":"noPool","type":"uint256","internalType":"uint256"},{"name":"status","type":"uint8","internalType":"enum WisdomMarket.MarketStatus"},{"name":"outcome","type":"uint8","internalType":"enum WisdomMarket.Position"},{"name":"createdAt","type":"uint256","internalType":"uint256"}]}],"stateMutability":"view"},{"type":"function","name":"getStake","inputs":[{"name":"marketId","type":"uint256","internalType":"uint256"},{"name":"agent","type":"address","internalType":"address"}],"outputs":[{"name":"","type":"tuple","internalType":"struct WisdomMarket.Stake","components":[{"name":"yesAmount","type":"uint256","internalType":"uint256"},{"name":"noAmount","type":"uint256","internalType":"uint256"},{"name":"claimed","type":"bool","internalType":"bool"}]}],"stateMutability":"view"},{"type":"function","name":"marketCount","inputs":[],"outputs":[{"name":"","type":"uint256","internalType":"uint256"}],"stateMutability":"view"},{"type":"function","name":"markets","inputs":[{"name":"","type":"uint256","internalType":"uint256"}],"outputs":[{"name":"question","type":"string","internalType":"string"},{"name":"creator","type":"address","internalType":"address"},{"name":"resolutionTime","type":"uint256","internalType":"uint256"},{"name":"yesPool","type":"uint256","internalType":"uint256"},{"name":"noPool","type":"uint256","internalType":"uint256"},{"name":"status","type":"uint8","internalType":"enum WisdomMarket.MarketStatus"},{"name":"outcome","type":"uint8","internalType":"enum WisdomMarket.Position"},{"name":"createdAt","type":"uint256","internalType":"uint256"}],"stateMutability":"view"},{"type":"function","name":"minStake","inputs":[],"outputs":[{"name":"","type":"uint256","internalType":"uint256"}],"stateMutability":"view"},{"type":"function","name":"owner","inputs":[],"outputs":[{"name":"","type":"address","internalType":"address"}],"stateMutability":"view"},{"type":"function","name":"protocolFeeBps","inputs":[],"outputs":[{"name":"","type":"uint256","internalType":"uint256"}],"stateMutability":"view"},{"type":"function","name":"renounceOwnership","inputs":[],"outputs":[],"stateMutability":"nonpayable"},{"type":"function","name":"resolve","inputs":[{"name":"marketId","type":"uint256","internalType":"uint256"},{"name":"outcome","type":"uint8","internalType":"enum WisdomMarket.Position"}],"outputs":[],"stateMutability":"nonpayable"},{"type":"function","name":"setProtocolFee","inputs":[{"name":"newFeeBps","type":"uint256","internalType":"uint256"}],"outputs":[],"stateMutability":"nonpayable"},{"type":"function","name":"stake","inputs":[{"name":"marketId","type":"uint256","internalType":"uint256"},{"name":"position","type":"uint8","internalType":"enum WisdomMarket.Position"},{"name":"amount","type":"uint256","internalType":"uint256"}],"outputs":[],"stateMutability":"nonpayable"},{"type":"function","name":"stakes","inputs":[{"name":"","type":"uint256","internalType":"uint256"},{"name":"","type":"address","internalType":"address"}],"outputs":[{"name":"yesAmount","type":"uint256","internalType":"uint256"},{"name":"noAmount","type":"uint256","internalType":"uint256"},{"name":"claimed","type":"bool","internalType":"bool"}],"stateMutability":"view"},{"type":"function","name":"stakingToken","inputs":[],"outputs":[{"name":"","type":"address","internalType":"contract IERC20"}],"stateMutability":"view"},{"type":"function","name":"transferOwnership","inputs":[{"name":"newOwner","type":"address","internalType":"address"}],"outputs":[],"stateMutability":"nonpayable"},{"type":"function","name":"withdrawFees","inputs":[],"outputs":[],"stateMutability":"nonpayable"},{"type":"event","name":"Claimed","inputs":[{"name":"id","type":"uint256","indexed":true,"internalType":"uint256"},{"name":"agent","type":"address","indexed":true,"internalType":"address"},{"name":"payout","type":"uint256","indexed":false,"internalType":"uint256"}],"anonymous":false},{"type":"event","name":"MarketCreated","inputs":[{"name":"id","type":"uint256","indexed":true,"internalType":"uint256"},{"name":"question","type":"string","indexed":false,"internalType":"string"},{"name":"creator","type":"address","indexed":false,"internalType":"address"},{"name":"resolutionTime","type":"uint256","indexed":false,"internalType":"uint256"}],"anonymous":false},{"type":"event","name":"MarketResolved","inputs":[{"name":"id","type":"uint256","indexed":true,"internalType":"uint256"},{"name":"outcome","type":"uint8","indexed":false,"internalType":"enum WisdomMarket.Position"}],"anonymous":false},{"type":"event","name":"OwnershipTransferred","inputs":[{"name":"previousOwner","type":"address","indexed":true,"internalType":"address"},{"name":"newOwner","type":"address","indexed":true,"internalType":"address"}],"anonymous":false},{"type":"event","name":"Staked","inputs":[{"name":"id","type":"uint256","indexed":true,"internalType":"uint256"},{"name":"agent","type":"address","indexed":true,"internalType":"address"},{"name":"position","type":"uint8","indexed":false,"internalType":"enum WisdomMarket.Position"},{"name":"amount","type":"uint256","indexed":false,"internalType":"uint256"}],"anonymous":false},{"type":"error","name":"OwnableInvalidOwner","inputs":[{"name":"owner","type":"address","internalType":"address"}]},{"type":"error","name":"OwnableUnauthorizedAccount","inputs":[{"name":"account","type":"address","internalType":"address"}]},{"type":"error","name":"SafeERC20FailedOperation","inputs":[{"name":"token","type":"address","internalType":"address"}]}],"bytecode":{"object":"0x608060405260c8600355670de0b6b3a7640000600455348015610020575f5ffd5b50604051612d03380380612d0383398181016040528101906100429190610228565b335f73ffffffffffffffffffffffffffffffffffffffff168173ffffffffffffffffffffffffffffffffffffffff16036100b3575f6040517f1e4fbdf70000000000000000000000000000000000000000000000000000000081526004016100aa9190610262565b60405180910390fd5b6100c28161010960201b60201c565b508060015f6101000a81548173ffffffffffffffffffffffffffffffffffffffff021916908373ffffffffffffffffffffffffffffffffffffffff1602179055505061027b565b5f5f5f9054906101000a900473ffffffffffffffffffffffffffffffffffffffff169050815f5f6101000a81548173ffffffffffffffffffffffffffffffffffffffff021916908373ffffffffffffffffffffffffffffffffffffffff1602179055508173ffffffffffffffffffffffffffffffffffffffff168173ffffffffffffffffffffffffffffffffffffffff167f8be0079c531659141344cd1fd0a4f28419497f9722a3daafe3b4186f6b6457e060405160405180910390a35050565b5f5ffd5b5f73ffffffffffffffffffffffffffffffffffffffff82169050919050565b5f6101f7826101ce565b9050919050565b610207816101ed565b8114610211575f5ffd5b50565b5f81519050610222816101fe565b92915050565b5f6020828403121561023d5761023c6101ca565b5b5f61024a84828501610214565b91505092915050565b61025c816101ed565b82525050565b5f6020820190506102755f830184610253565b92915050565b612a7b806102885f395ff3fe608060405234801561000f575f5ffd5b5060043610610140575f3560e01c80638da5cb5b116100b6578063b5695b381161007a578063b5695b381461036b578063d94c8fcd1461039e578063eb44fdd3146103ce578063ec979082146103fe578063f2fde38b1461041c578063f99b7d751461043857610140565b80638da5cb5b146102985780639c0e1608146102b6578063a0128db4146102d2578063a9a3bba414610302578063b1283e771461033457610140565b8063587f5ed711610108578063587f5ed7146101d657806366c5857a146101f457806368c5805e14610224578063715018a61461025457806372f702f31461025e578063787dce3d1461027c57610140565b806335659fb814610144578063375b3c0a14610162578063379607f51461018057806345eddad31461019c578063476343ee146101cc575b5f5ffd5b61014c610454565b60405161015991906119a2565b60405180910390f35b61016a61045a565b60405161017791906119a2565b60405180910390f35b61019a600480360381019061019591906119ed565b610460565b005b6101b660048036038101906101b19190611a72565b6107db565b6040516101c391906119a2565b60405180910390f35b6101d46107f0565b005b6101de61085b565b6040516101eb91906119a2565b60405180910390f35b61020e60048036038101906102099190611b21565b610861565b60405161021b91906119a2565b60405180910390f35b61023e60048036038101906102399190611ba5565b610b50565b60405161024b9190611c4c565b60405180910390f35b61025c610be4565b005b610266610bf7565b6040516102739190611cc0565b60405180910390f35b610296600480360381019061029191906119ed565b610c1c565b005b6102a0610c73565b6040516102ad9190611ce8565b60405180910390f35b6102d060048036038101906102cb9190611d01565b610c9a565b005b6102ec60048036038101906102e79190611a72565b610e08565b6040516102f991906119a2565b60405180910390f35b61031c60048036038101906103179190611ba5565b610e1d565b60405161032b93929190611d4e565b60405180910390f35b61034e600480360381019061034991906119ed565b610e5a565b604051610362989796959493929190611eac565b60405180910390f35b61038560048036038101906103809190611a72565b610f5c565b6040516103959493929190611f2f565b60405180910390f35b6103b860048036038101906103b39190611a72565b611066565b6040516103c591906119a2565b60405180910390f35b6103e860048036038101906103e391906119ed565b61107b565b6040516103f59190612094565b60405180910390f35b610406611228565b60405161041391906119a2565b60405180910390f35b61043660048036038101906104319190611a72565b61122e565b005b610452600480360381019061044d91906120b4565b6112b2565b005b60035481565b60045481565b5f60065f8381526020019081526020015f2090506001600281111561048857610487611df3565b5b816005015f9054906101000a900460ff1660028111156104ab576104aa611df3565b5b146104eb576040517f08c379a00000000000000000000000000000000000000000000000000000000081526004016104e29061214e565b60405180910390fd5b5f60075f8481526020019081526020015f205f3373ffffffffffffffffffffffffffffffffffffffff1673ffffffffffffffffffffffffffffffffffffffff1681526020019081526020015f209050806002015f9054906101000a900460ff161561058b576040517f08c379a0000000000000000000000000000000000000000000000000000000008152600401610582906121b6565b60405180910390fd5b6001816002015f6101000a81548160ff0219169083151502179055505f5f5f5f60018111156105bd576105bc611df3565b5b8560050160019054906101000a900460ff1660018111156105e1576105e0611df3565b5b036105ff578460030154925084600401549150835f01549050610615565b8460040154925084600301549150836001015490505b5f81036106785760095f3373ffffffffffffffffffffffffffffffffffffffff1673ffffffffffffffffffffffffffffffffffffffff1681526020019081526020015f205f81548092919061066990612201565b919050555050505050506107d8565b5f6127106003548461068a9190612248565b61069491906122b6565b90508060055f8282546106a791906122e6565b925050819055505f81846106bb9190612319565b90505f8584836106cb9190612248565b6106d591906122b6565b846106e091906122e6565b905060085f3373ffffffffffffffffffffffffffffffffffffffff1673ffffffffffffffffffffffffffffffffffffffff1681526020019081526020015f205f81548092919061072f90612201565b9190505550610780338260015f9054906101000a900473ffffffffffffffffffffffffffffffffffffffff1673ffffffffffffffffffffffffffffffffffffffff166113e39092919063ffffffff16565b3373ffffffffffffffffffffffffffffffffffffffff16897f4ec90e965519d92681267467f775ada5bd214aa92c0dc93d90a5e880ce9ed026836040516107c791906119a2565b60405180910390a350505050505050505b50565b6009602052805f5260405f205f915090505481565b6107f8611436565b5f60055490505f600581905550610858610810610c73565b8260015f9054906101000a900473ffffffffffffffffffffffffffffffffffffffff1673ffffffffffffffffffffffffffffffffffffffff166113e39092919063ffffffff16565b50565b60055481565b5f4284116108a4576040517f08c379a000000000000000000000000000000000000000000000000000000000815260040161089b90612396565b60405180910390fd5b6276a700426108b391906122e6565b8411156108f5576040517f08c379a00000000000000000000000000000000000000000000000000000000081526004016108ec906123fe565b60405180910390fd5b60045482101561093a576040517f08c379a000000000000000000000000000000000000000000000000000000000815260040161093190612466565b60405180910390fd5b60025f81548092919061094c90612201565b91905055905060405180610100016040528087878080601f0160208091040260200160405190810160405280939291908181526020018383808284375f81840152601f19601f8201169050808301925050505050505081526020013373ffffffffffffffffffffffffffffffffffffffff1681526020018581526020015f81526020015f81526020015f60028111156109e8576109e7611df3565b5b81526020015f6001811115610a00576109ff611df3565b5b81526020014281525060065f8381526020019081526020015f205f820151815f019081610a2d91906126b6565b506020820151816001015f6101000a81548173ffffffffffffffffffffffffffffffffffffffff021916908373ffffffffffffffffffffffffffffffffffffffff16021790555060408201518160020155606082015181600301556080820151816004015560a0820151816005015f6101000a81548160ff02191690836002811115610abc57610abb611df3565b5b021790555060c08201518160050160016101000a81548160ff02191690836001811115610aec57610aeb611df3565b5b021790555060e08201518160060155905050610b098184846114bd565b807f069da8c9710c1600001ae111f110050f586b7fcd73d420b5eb03747f67e86d0d87873388604051610b3f94939291906127bf565b60405180910390a295945050505050565b610b586118f2565b60075f8481526020019081526020015f205f8373ffffffffffffffffffffffffffffffffffffffff1673ffffffffffffffffffffffffffffffffffffffff1681526020019081526020015f206040518060600160405290815f820154815260200160018201548152602001600282015f9054906101000a900460ff161515151581525050905092915050565b610bec611436565b610bf55f611702565b565b60015f9054906101000a900473ffffffffffffffffffffffffffffffffffffffff1681565b610c24611436565b6101f4811115610c69576040517f08c379a0000000000000000000000000000000000000000000000000000000008152600401610c6090612847565b60405180910390fd5b8060038190555050565b5f5f5f9054906101000a900473ffffffffffffffffffffffffffffffffffffffff16905090565b610ca2611436565b5f60065f8481526020019081526020015f2090505f6002811115610cc957610cc8611df3565b5b816005015f9054906101000a900460ff166002811115610cec57610ceb611df3565b5b14610d2c576040517f08c379a0000000000000000000000000000000000000000000000000000000008152600401610d23906128af565b60405180910390fd5b8060020154421015610d73576040517f08c379a0000000000000000000000000000000000000000000000000000000008152600401610d6a90612917565b60405180910390fd5b6001816005015f6101000a81548160ff02191690836002811115610d9a57610d99611df3565b5b0217905550818160050160016101000a81548160ff02191690836001811115610dc657610dc5611df3565b5b0217905550827f739f283563fb51ab6b89ee95d937b2e63a6cfcb83c385dbebb629f9d97bd43e683604051610dfb9190612935565b60405180910390a2505050565b600a602052805f5260405f205f915090505481565b6007602052815f5260405f20602052805f5260405f205f9150915050805f015490806001015490806002015f9054906101000a900460ff16905083565b6006602052805f5260405f205f91509050805f018054610e79906124de565b80601f0160208091040260200160405190810160405280929190818152602001828054610ea5906124de565b8015610ef05780601f10610ec757610100808354040283529160200191610ef0565b820191905f5260205f20905b815481529060010190602001808311610ed357829003601f168201915b505050505090806001015f9054906101000a900473ffffffffffffffffffffffffffffffffffffffff1690806002015490806003015490806004015490806005015f9054906101000a900460ff16908060050160019054906101000a900460ff16908060060154905088565b5f5f5f5f60085f8673ffffffffffffffffffffffffffffffffffffffff1673ffffffffffffffffffffffffffffffffffffffff1681526020019081526020015f2054935060095f8673ffffffffffffffffffffffffffffffffffffffff1673ffffffffffffffffffffffffffffffffffffffff1681526020019081526020015f20549250600a5f8673ffffffffffffffffffffffffffffffffffffffff1673ffffffffffffffffffffffffffffffffffffffff1681526020019081526020015f205491505f838561102d91906122e6565b11611038575f61105d565b828461104491906122e6565b612710856110529190612248565b61105c91906122b6565b5b90509193509193565b6008602052805f5260405f205f915090505481565b611083611912565b60065f8381526020019081526020015f20604051806101000160405290815f820180546110af906124de565b80601f01602080910402602001604051908101604052809291908181526020018280546110db906124de565b80156111265780601f106110fd57610100808354040283529160200191611126565b820191905f5260205f20905b81548152906001019060200180831161110957829003601f168201915b50505050508152602001600182015f9054906101000a900473ffffffffffffffffffffffffffffffffffffffff1673ffffffffffffffffffffffffffffffffffffffff1673ffffffffffffffffffffffffffffffffffffffff168152602001600282015481526020016003820154815260200160048201548152602001600582015f9054906101000a900460ff1660028111156111c6576111c5611df3565b5b60028111156111d8576111d7611df3565b5b81526020016005820160019054906101000a900460ff16600181111561120157611200611df3565b5b600181111561121357611212611df3565b5b81526020016006820154815250509050919050565b60025481565b611236611436565b5f73ffffffffffffffffffffffffffffffffffffffff168173ffffffffffffffffffffffffffffffffffffffff16036112a6575f6040517f1e4fbdf700000000000000000000000000000000000000000000000000000000815260040161129d9190611ce8565b60405180910390fd5b6112af81611702565b50565b5f60028111156112c5576112c4611df3565b5b60065f8581526020019081526020015f206005015f9054906101000a900460ff1660028111156112f8576112f7611df3565b5b14611338576040517f08c379a000000000000000000000000000000000000000000000000000000000815260040161132f90612998565b60405180910390fd5b60065f8481526020019081526020015f2060020154421061138e576040517f08c379a000000000000000000000000000000000000000000000000000000000815260040161138590612a00565b60405180910390fd5b6004548110156113d3576040517f08c379a00000000000000000000000000000000000000000000000000000000081526004016113ca90612466565b60405180910390fd5b6113de8383836114bd565b505050565b6113f083838360016117c3565b61143157826040517f5274afe70000000000000000000000000000000000000000000000000000000081526004016114289190611ce8565b60405180910390fd5b505050565b61143e611825565b73ffffffffffffffffffffffffffffffffffffffff1661145c610c73565b73ffffffffffffffffffffffffffffffffffffffff16146114bb5761147f611825565b6040517f118cdaa70000000000000000000000000000000000000000000000000000000081526004016114b29190611ce8565b60405180910390fd5b565b61150b33308360015f9054906101000a900473ffffffffffffffffffffffffffffffffffffffff1673ffffffffffffffffffffffffffffffffffffffff1661182c909392919063ffffffff16565b5f600181111561151e5761151d611df3565b5b82600181111561153157611530611df3565b5b036115c9578060065f8581526020019081526020015f206003015f82825461155991906122e6565b925050819055508060075f8581526020019081526020015f205f3373ffffffffffffffffffffffffffffffffffffffff1673ffffffffffffffffffffffffffffffffffffffff1681526020019081526020015f205f015f8282546115bd91906122e6565b92505081905550611659565b8060065f8581526020019081526020015f206004015f8282546115ec91906122e6565b925050819055508060075f8581526020019081526020015f205f3373ffffffffffffffffffffffffffffffffffffffff1673ffffffffffffffffffffffffffffffffffffffff1681526020019081526020015f206001015f82825461165191906122e6565b925050819055505b80600a5f3373ffffffffffffffffffffffffffffffffffffffff1673ffffffffffffffffffffffffffffffffffffffff1681526020019081526020015f205f8282546116a591906122e6565b925050819055503373ffffffffffffffffffffffffffffffffffffffff16837f0a867db1cb5dc249fadc9a5e0ea86179b9d19744911fc31e36608c19eecff7b584846040516116f5929190612a1e565b60405180910390a3505050565b5f5f5f9054906101000a900473ffffffffffffffffffffffffffffffffffffffff169050815f5f6101000a81548173ffffffffffffffffffffffffffffffffffffffff021916908373ffffffffffffffffffffffffffffffffffffffff1602179055508173ffffffffffffffffffffffffffffffffffffffff168173ffffffffffffffffffffffffffffffffffffffff167f8be0079c531659141344cd1fd0a4f28419497f9722a3daafe3b4186f6b6457e060405160405180910390a35050565b5f5f63a9059cbb60e01b9050604051815f525f1960601c86166004528460245260205f60445f5f8b5af1925060015f5114831661181757838315161561180b573d5f823e3d81fd5b5f873b113d1516831692505b806040525050949350505050565b5f33905090565b61183a848484846001611881565b61187b57836040517f5274afe70000000000000000000000000000000000000000000000000000000081526004016118729190611ce8565b60405180910390fd5b50505050565b5f5f6323b872dd60e01b9050604051815f525f1960601c87166004525f1960601c86166024528460445260205f60645f5f8c5af1925060015f511483166118df5783831516156118d3573d5f823e3d81fd5b5f883b113d1516831692505b806040525f606052505095945050505050565b60405180606001604052805f81526020015f81526020015f151581525090565b604051806101000160405280606081526020015f73ffffffffffffffffffffffffffffffffffffffff1681526020015f81526020015f81526020015f81526020015f600281111561196657611965611df3565b5b81526020015f600181111561197e5761197d611df3565b5b81526020015f81525090565b5f819050919050565b61199c8161198a565b82525050565b5f6020820190506119b55f830184611993565b92915050565b5f5ffd5b5f5ffd5b6119cc8161198a565b81146119d6575f5ffd5b50565b5f813590506119e7816119c3565b92915050565b5f60208284031215611a0257611a016119bb565b5b5f611a0f848285016119d9565b91505092915050565b5f73ffffffffffffffffffffffffffffffffffffffff82169050919050565b5f611a4182611a18565b9050919050565b611a5181611a37565b8114611a5b575f5ffd5b50565b5f81359050611a6c81611a48565b92915050565b5f60208284031215611a8757611a866119bb565b5b5f611a9484828501611a5e565b91505092915050565b5f5ffd5b5f5ffd5b5f5ffd5b5f5f83601f840112611abe57611abd611a9d565b5b8235905067ffffffffffffffff811115611adb57611ada611aa1565b5b602083019150836001820283011115611af757611af6611aa5565b5b9250929050565b60028110611b0a575f5ffd5b50565b5f81359050611b1b81611afe565b92915050565b5f5f5f5f5f60808688031215611b3a57611b396119bb565b5b5f86013567ffffffffffffffff811115611b5757611b566119bf565b5b611b6388828901611aa9565b95509550506020611b76888289016119d9565b9350506040611b8788828901611b0d565b9250506060611b98888289016119d9565b9150509295509295909350565b5f5f60408385031215611bbb57611bba6119bb565b5b5f611bc8858286016119d9565b9250506020611bd985828601611a5e565b9150509250929050565b611bec8161198a565b82525050565b5f8115159050919050565b611c0681611bf2565b82525050565b606082015f820151611c205f850182611be3565b506020820151611c336020850182611be3565b506040820151611c466040850182611bfd565b50505050565b5f606082019050611c5f5f830184611c0c565b92915050565b5f819050919050565b5f611c88611c83611c7e84611a18565b611c65565b611a18565b9050919050565b5f611c9982611c6e565b9050919050565b5f611caa82611c8f565b9050919050565b611cba81611ca0565b82525050565b5f602082019050611cd35f830184611cb1565b92915050565b611ce281611a37565b82525050565b5f602082019050611cfb5f830184611cd9565b92915050565b5f5f60408385031215611d1757611d166119bb565b5b5f611d24858286016119d9565b9250506020611d3585828601611b0d565b9150509250929050565b611d4881611bf2565b82525050565b5f606082019050611d615f830186611993565b611d6e6020830185611993565b611d7b6040830184611d3f565b949350505050565b5f81519050919050565b5f82825260208201905092915050565b8281835e5f83830152505050565b5f601f19601f8301169050919050565b5f611dc582611d83565b611dcf8185611d8d565b9350611ddf818560208601611d9d565b611de881611dab565b840191505092915050565b7f4e487b71000000000000000000000000000000000000000000000000000000005f52602160045260245ffd5b60038110611e3157611e30611df3565b5b50565b5f819050611e4182611e20565b919050565b5f611e5082611e34565b9050919050565b611e6081611e46565b82525050565b60028110611e7757611e76611df3565b5b50565b5f819050611e8782611e66565b919050565b5f611e9682611e7a565b9050919050565b611ea681611e8c565b82525050565b5f610100820190508181035f830152611ec5818b611dbb565b9050611ed4602083018a611cd9565b611ee16040830189611993565b611eee6060830188611993565b611efb6080830187611993565b611f0860a0830186611e57565b611f1560c0830185611e9d565b611f2260e0830184611993565b9998505050505050505050565b5f608082019050611f425f830187611993565b611f4f6020830186611993565b611f5c6040830185611993565b611f696060830184611993565b95945050505050565b5f82825260208201905092915050565b5f611f8c82611d83565b611f968185611f72565b9350611fa6818560208601611d9d565b611faf81611dab565b840191505092915050565b611fc381611a37565b82525050565b611fd281611e46565b82525050565b611fe181611e8c565b82525050565b5f61010083015f8301518482035f8601526120028282611f82565b91505060208301516120176020860182611fba565b50604083015161202a6040860182611be3565b50606083015161203d6060860182611be3565b5060808301516120506080860182611be3565b5060a083015161206360a0860182611fc9565b5060c083015161207660c0860182611fd8565b5060e083015161208960e0860182611be3565b508091505092915050565b5f6020820190508181035f8301526120ac8184611fe7565b905092915050565b5f5f5f606084860312156120cb576120ca6119bb565b5b5f6120d8868287016119d9565b93505060206120e986828701611b0d565b92505060406120fa868287016119d9565b9150509250925092565b7f4e6f74207265736f6c76656400000000000000000000000000000000000000005f82015250565b5f612138600c83611d8d565b915061214382612104565b602082019050919050565b5f6020820190508181035f8301526121658161212c565b9050919050565b7f416c726561647920636c61696d656400000000000000000000000000000000005f82015250565b5f6121a0600f83611d8d565b91506121ab8261216c565b602082019050919050565b5f6020820190508181035f8301526121cd81612194565b9050919050565b7f4e487b71000000000000000000000000000000000000000000000000000000005f52601160045260245ffd5b5f61220b8261198a565b91507fffffffffffffffffffffffffffffffffffffffffffffffffffffffffffffffff820361223d5761223c6121d4565b5b600182019050919050565b5f6122528261198a565b915061225d8361198a565b925082820261226b8161198a565b91508282048414831517612282576122816121d4565b5b5092915050565b7f4e487b71000000000000000000000000000000000000000000000000000000005f52601260045260245ffd5b5f6122c08261198a565b91506122cb8361198a565b9250826122db576122da612289565b5b828204905092915050565b5f6122f08261198a565b91506122fb8361198a565b9250828201905080821115612313576123126121d4565b5b92915050565b5f6123238261198a565b915061232e8361198a565b9250828203905081811115612346576123456121d4565b5b92915050565b7f5265736f6c7574696f6e206d75737420626520667574757265000000000000005f82015250565b5f612380601983611d8d565b915061238b8261234c565b602082019050919050565b5f6020820190508181035f8301526123ad81612374565b9050919050565b7f4d617820393020646179206d61726b65747300000000000000000000000000005f82015250565b5f6123e8601283611d8d565b91506123f3826123b4565b602082019050919050565b5f6020820190508181035f830152612415816123dc565b9050919050565b7f42656c6f77206d696e696d756d207374616b65000000000000000000000000005f82015250565b5f612450601383611d8d565b915061245b8261241c565b602082019050919050565b5f6020820190508181035f83015261247d81612444565b9050919050565b7f4e487b71000000000000000000000000000000000000000000000000000000005f52604160045260245ffd5b7f4e487b71000000000000000000000000000000000000000000000000000000005f52602260045260245ffd5b5f60028204905060018216806124f557607f821691505b602082108103612508576125076124b1565b5b50919050565b5f819050815f5260205f209050919050565b5f6020601f8301049050919050565b5f82821b905092915050565b5f6008830261256a7fffffffffffffffffffffffffffffffffffffffffffffffffffffffffffffffff8261252f565b612574868361252f565b95508019841693508086168417925050509392505050565b5f6125a66125a161259c8461198a565b611c65565b61198a565b9050919050565b5f819050919050565b6125bf8361258c565b6125d36125cb826125ad565b84845461253b565b825550505050565b5f5f905090565b6125ea6125db565b6125f58184846125b6565b505050565b5f5b8281101561261b576126105f8284016125e2565b6001810190506125fc565b505050565b601f82111561266e578282111561266d5761263a8161250e565b61264383612520565b61264c85612520565b6020861015612659575f90505b808301612668828403826125fa565b505050505b5b505050565b5f82821c905092915050565b5f61268e5f1984600802612673565b1980831691505092915050565b5f6126a6838361267f565b9150826002028217905092915050565b6126bf82611d83565b67ffffffffffffffff8111156126d8576126d7612484565b5b6126e282546124de565b6126ed828285612620565b5f60209050601f83116001811461271e575f841561270c578287015190505b612716858261269b565b86555061277d565b601f19841661272c8661250e565b5f5b828110156127535784890151825560018201915060208501945060208101905061272e565b86831015612770578489015161276c601f89168261267f565b8355505b6001600288020188555050505b505050505050565b828183375f83830152505050565b5f61279e8385611d8d565b93506127ab838584612785565b6127b483611dab565b840190509392505050565b5f6060820190508181035f8301526127d8818688612793565b90506127e76020830185611cd9565b6127f46040830184611993565b95945050505050565b7f4d617820352500000000000000000000000000000000000000000000000000005f82015250565b5f612831600683611d8d565b915061283c826127fd565b602082019050919050565b5f6020820190508181035f83015261285e81612825565b9050919050565b7f416c7265616479207265736f6c766564000000000000000000000000000000005f82015250565b5f612899601083611d8d565b91506128a482612865565b602082019050919050565b5f6020820190508181035f8301526128c68161288d565b9050919050565b7f546f6f206561726c7900000000000000000000000000000000000000000000005f82015250565b5f612901600983611d8d565b915061290c826128cd565b602082019050919050565b5f6020820190508181035f83015261292e816128f5565b9050919050565b5f6020820190506129485f830184611e9d565b92915050565b7f4d61726b6574206e6f74206163746976650000000000000000000000000000005f82015250565b5f612982601183611d8d565b915061298d8261294e565b602082019050919050565b5f6020820190508181035f8301526129af81612976565b9050919050565b7f4d61726b657420657870697265640000000000000000000000000000000000005f82015250565b5f6129ea600e83611d8d565b91506129f5826129b6565b602082019050919050565b5f6020820190508181035f830152612a17816129de565b9050919050565b5f604082019050612a315f830185611e9d565b612a3e6020830184611993565b939250505056fea2646970667358221220a6f28e08ab07f8ca2252a69cfe38533de465ca120424e1330b3b80eb15df5fc064736f6c63430008210033","linkReferences":{}},"methodIdentifiers":{"accumulatedFees()":"587f5ed7","agentLosses(address)":"45eddad3","agentTotalStaked(address)":"a0128db4","agentWins(address)":"d94c8fcd","claim(uint256)":"379607f5","createMarket(string,uint256,uint8,uint256)":"66c5857a","getAgentStats(address)":"b5695b38","getMarket(uint256)":"eb44fdd3","getStake(uint256,address)":"68c5805e","marketCount()":"ec979082","markets(uint256)":"b1283e77","minStake()":"375b3c0a","owner()":"8da5cb5b","protocolFeeBps()":"35659fb8","renounceOwnership()":"715018a6","resolve(uint256,uint8)":"9c0e1608","setProtocolFee(uint256)":"787dce3d","stake(uint256,uint8,uint256)":"f99b7d75","stakes(uint256,address)":"a9a3bba4","stakingToken()":"72f702f3","transferOwnership(address)":"f2fde38b","withdrawFees()":"476343ee"},"id":0}